{
  "_format": "hh-sol-artifact-1",
  "contractName": "NFTMarketplace",
  "sourceName": "contracts/NFTMarkeplace.sol",
  "abi": [
    {
      "inputs": [],
      "stateMutability": "nonpayable",
      "type": "constructor"
    },
    {
      "anonymous": false,
      "inputs": [
        {
          "indexed": true,
          "internalType": "address",
          "name": "owner",
          "type": "address"
        },
        {
          "indexed": true,
          "internalType": "address",
          "name": "approved",
          "type": "address"
        },
        {
          "indexed": true,
          "internalType": "uint256",
          "name": "tokenId",
          "type": "uint256"
        }
      ],
      "name": "Approval",
      "type": "event"
    },
    {
      "anonymous": false,
      "inputs": [
        {
          "indexed": true,
          "internalType": "address",
          "name": "owner",
          "type": "address"
        },
        {
          "indexed": true,
          "internalType": "address",
          "name": "operator",
          "type": "address"
        },
        {
          "indexed": false,
          "internalType": "bool",
          "name": "approved",
          "type": "bool"
        }
      ],
      "name": "ApprovalForAll",
      "type": "event"
    },
    {
      "anonymous": false,
      "inputs": [
        {
          "indexed": true,
          "internalType": "uint256",
          "name": "tokenId",
          "type": "uint256"
        },
        {
          "indexed": false,
          "internalType": "address",
          "name": "seller",
          "type": "address"
        },
        {
          "indexed": false,
          "internalType": "address",
          "name": "owner",
          "type": "address"
        },
        {
          "indexed": false,
          "internalType": "uint256",
          "name": "price",
          "type": "uint256"
        },
        {
          "indexed": false,
          "internalType": "bool",
          "name": "sold",
          "type": "bool"
        }
      ],
      "name": "MarketItemCreated",
      "type": "event"
    },
    {
      "anonymous": false,
      "inputs": [
        {
          "indexed": true,
          "internalType": "address",
          "name": "from",
          "type": "address"
        },
        {
          "indexed": true,
          "internalType": "address",
          "name": "to",
          "type": "address"
        },
        {
          "indexed": true,
          "internalType": "uint256",
          "name": "tokenId",
          "type": "uint256"
        }
      ],
      "name": "Transfer",
      "type": "event"
    },
    {
      "inputs": [
        {
          "internalType": "address",
          "name": "to",
          "type": "address"
        },
        {
          "internalType": "uint256",
          "name": "tokenId",
          "type": "uint256"
        }
      ],
      "name": "approve",
      "outputs": [],
      "stateMutability": "nonpayable",
      "type": "function"
    },
    {
      "inputs": [
        {
          "internalType": "address",
          "name": "owner",
          "type": "address"
        }
      ],
      "name": "balanceOf",
      "outputs": [
        {
          "internalType": "uint256",
          "name": "",
          "type": "uint256"
        }
      ],
      "stateMutability": "view",
      "type": "function"
    },
    {
      "inputs": [
        {
          "internalType": "uint256",
          "name": "tokenId",
          "type": "uint256"
        }
      ],
      "name": "createMarketSale",
      "outputs": [],
      "stateMutability": "payable",
      "type": "function"
    },
    {
      "inputs": [
        {
          "internalType": "string",
          "name": "tokenURI",
          "type": "string"
        },
        {
          "internalType": "uint256",
          "name": "price",
          "type": "uint256"
        }
      ],
      "name": "createToken",
      "outputs": [
        {
          "internalType": "uint256",
          "name": "",
          "type": "uint256"
        }
      ],
      "stateMutability": "payable",
      "type": "function"
    },
    {
      "inputs": [],
      "name": "fetchMarketItems",
      "outputs": [
        {
          "components": [
            {
              "internalType": "uint256",
              "name": "tokenId",
              "type": "uint256"
            },
            {
              "internalType": "address payable",
              "name": "seller",
              "type": "address"
            },
            {
              "internalType": "address payable",
              "name": "owner",
              "type": "address"
            },
            {
              "internalType": "uint256",
              "name": "price",
              "type": "uint256"
            },
            {
              "internalType": "bool",
              "name": "sold",
              "type": "bool"
            }
          ],
          "internalType": "struct NFTMarketplace.MarketItem[]",
          "name": "",
          "type": "tuple[]"
        }
      ],
      "stateMutability": "view",
      "type": "function"
    },
    {
      "inputs": [],
      "name": "fetchMyNFTs",
      "outputs": [
        {
          "components": [
            {
              "internalType": "uint256",
              "name": "tokenId",
              "type": "uint256"
            },
            {
              "internalType": "address payable",
              "name": "seller",
              "type": "address"
            },
            {
              "internalType": "address payable",
              "name": "owner",
              "type": "address"
            },
            {
              "internalType": "uint256",
              "name": "price",
              "type": "uint256"
            },
            {
              "internalType": "bool",
              "name": "sold",
              "type": "bool"
            }
          ],
          "internalType": "struct NFTMarketplace.MarketItem[]",
          "name": "",
          "type": "tuple[]"
        }
      ],
      "stateMutability": "view",
      "type": "function"
    },
    {
      "inputs": [],
      "name": "fetchNFTsListed",
      "outputs": [
        {
          "components": [
            {
              "internalType": "uint256",
              "name": "tokenId",
              "type": "uint256"
            },
            {
              "internalType": "address payable",
              "name": "seller",
              "type": "address"
            },
            {
              "internalType": "address payable",
              "name": "owner",
              "type": "address"
            },
            {
              "internalType": "uint256",
              "name": "price",
              "type": "uint256"
            },
            {
              "internalType": "bool",
              "name": "sold",
              "type": "bool"
            }
          ],
          "internalType": "struct NFTMarketplace.MarketItem[]",
          "name": "",
          "type": "tuple[]"
        }
      ],
      "stateMutability": "view",
      "type": "function"
    },
    {
      "inputs": [
        {
          "internalType": "uint256",
          "name": "tokenId",
          "type": "uint256"
        }
      ],
      "name": "getApproved",
      "outputs": [
        {
          "internalType": "address",
          "name": "",
          "type": "address"
        }
      ],
      "stateMutability": "view",
      "type": "function"
    },
    {
      "inputs": [],
      "name": "getListingPrice",
      "outputs": [
        {
          "internalType": "uint256",
          "name": "",
          "type": "uint256"
        }
      ],
      "stateMutability": "view",
      "type": "function"
    },
    {
      "inputs": [
        {
          "internalType": "address",
          "name": "owner",
          "type": "address"
        },
        {
          "internalType": "address",
          "name": "operator",
          "type": "address"
        }
      ],
      "name": "isApprovedForAll",
      "outputs": [
        {
          "internalType": "bool",
          "name": "",
          "type": "bool"
        }
      ],
      "stateMutability": "view",
      "type": "function"
    },
    {
      "inputs": [],
      "name": "name",
      "outputs": [
        {
          "internalType": "string",
          "name": "",
          "type": "string"
        }
      ],
      "stateMutability": "view",
      "type": "function"
    },
    {
      "inputs": [
        {
          "internalType": "uint256",
          "name": "tokenId",
          "type": "uint256"
        }
      ],
      "name": "ownerOf",
      "outputs": [
        {
          "internalType": "address",
          "name": "",
          "type": "address"
        }
      ],
      "stateMutability": "view",
      "type": "function"
    },
    {
      "inputs": [
        {
          "internalType": "uint256",
          "name": "tokenId",
          "type": "uint256"
        },
        {
          "internalType": "uint256",
          "name": "price",
          "type": "uint256"
        }
      ],
      "name": "resellToken",
      "outputs": [],
      "stateMutability": "payable",
      "type": "function"
    },
    {
      "inputs": [
        {
          "internalType": "address",
          "name": "from",
          "type": "address"
        },
        {
          "internalType": "address",
          "name": "to",
          "type": "address"
        },
        {
          "internalType": "uint256",
          "name": "tokenId",
          "type": "uint256"
        }
      ],
      "name": "safeTransferFrom",
      "outputs": [],
      "stateMutability": "nonpayable",
      "type": "function"
    },
    {
      "inputs": [
        {
          "internalType": "address",
          "name": "from",
          "type": "address"
        },
        {
          "internalType": "address",
          "name": "to",
          "type": "address"
        },
        {
          "internalType": "uint256",
          "name": "tokenId",
          "type": "uint256"
        },
        {
          "internalType": "bytes",
          "name": "_data",
          "type": "bytes"
        }
      ],
      "name": "safeTransferFrom",
      "outputs": [],
      "stateMutability": "nonpayable",
      "type": "function"
    },
    {
      "inputs": [
        {
          "internalType": "address",
          "name": "operator",
          "type": "address"
        },
        {
          "internalType": "bool",
          "name": "approved",
          "type": "bool"
        }
      ],
      "name": "setApprovalForAll",
      "outputs": [],
      "stateMutability": "nonpayable",
      "type": "function"
    },
    {
      "inputs": [
        {
          "internalType": "bytes4",
          "name": "interfaceId",
          "type": "bytes4"
        }
      ],
      "name": "supportsInterface",
      "outputs": [
        {
          "internalType": "bool",
          "name": "",
          "type": "bool"
        }
      ],
      "stateMutability": "view",
      "type": "function"
    },
    {
      "inputs": [],
      "name": "symbol",
      "outputs": [
        {
          "internalType": "string",
          "name": "",
          "type": "string"
        }
      ],
      "stateMutability": "view",
      "type": "function"
    },
    {
      "inputs": [
        {
          "internalType": "uint256",
          "name": "tokenId",
          "type": "uint256"
        }
      ],
      "name": "tokenURI",
      "outputs": [
        {
          "internalType": "string",
          "name": "",
          "type": "string"
        }
      ],
      "stateMutability": "view",
      "type": "function"
    },
    {
      "inputs": [
        {
          "internalType": "address",
          "name": "from",
          "type": "address"
        },
        {
          "internalType": "address",
          "name": "to",
          "type": "address"
        },
        {
          "internalType": "uint256",
          "name": "tokenId",
          "type": "uint256"
        }
      ],
      "name": "transferFrom",
      "outputs": [],
      "stateMutability": "nonpayable",
      "type": "function"
    },
    {
      "inputs": [
        {
          "internalType": "uint256",
          "name": "_listingPrice",
          "type": "uint256"
        }
      ],
      "name": "updateListingPrice",
      "outputs": [],
      "stateMutability": "payable",
      "type": "function"
    }
  ],
  "bytecode": "0x60806040526658d15e176280006009553480156200001c57600080fd5b506040518060400160405280601081526020017f4d657461766572736520546f6b656e73000000000000000000000000000000008152506040518060400160405280600481526020017f4d455454000000000000000000000000000000000000000000000000000000008152508160009080519060200190620000a192919062000104565b508060019080519060200190620000ba92919062000104565b50505033600a60006101000a81548173ffffffffffffffffffffffffffffffffffffffff021916908373ffffffffffffffffffffffffffffffffffffffff16021790555062000219565b8280546200011290620001b4565b90600052602060002090601f01602090048101928262000136576000855562000182565b82601f106200015157805160ff191683800117855562000182565b8280016001018555821562000182579182015b828111156200018157825182559160200191906001019062000164565b5b50905062000191919062000195565b5090565b5b80821115620001b057600081600090555060010162000196565b5090565b60006002820490506001821680620001cd57607f821691505b60208210811415620001e457620001e3620001ea565b5b50919050565b7f4e487b7100000000000000000000000000000000000000000000000000000000600052602260045260246000fd5b6142b180620002296000396000f3fe60806040526004361061012a5760003560e01c806370a08231116100ab578063b88d4fde1161006f578063b88d4fde146103ea578063be9af53614610413578063c015ca7e1461042f578063c87b56dd1461045a578063e219fc7514610497578063e985e9c5146104b35761012a565b806370a082311461030d57806372b3b6201461034a57806395d89b411461037a578063a22cb465146103a5578063ae677aa3146103ce5761012a565b806312e85585116100f257806312e8558514610228578063202e37401461025357806323b872dd1461027e57806342842e0e146102a75780636352211e146102d05761012a565b806301ffc9a71461012f57806306fdde031461016c578063081812fc14610197578063095ea7b3146101d45780630f08efe0146101fd575b600080fd5b34801561013b57600080fd5b5061015660048036038101906101519190612e37565b6104f0565b60405161016391906134ee565b60405180910390f35b34801561017857600080fd5b506101816105d2565b60405161018e9190613509565b60405180910390f35b3480156101a357600080fd5b506101be60048036038101906101b99190612edd565b610664565b6040516101cb9190613420565b60405180910390f35b3480156101e057600080fd5b506101fb60048036038101906101f69190612dfb565b6106e9565b005b34801561020957600080fd5b50610212610801565b60405161021f91906134cc565b60405180910390f35b34801561023457600080fd5b5061023d610ab6565b60405161024a91906137cb565b60405180910390f35b34801561025f57600080fd5b50610268610ac0565b60405161027591906134cc565b60405180910390f35b34801561028a57600080fd5b506102a560048036038101906102a09190612cf5565b610dfa565b005b3480156102b357600080fd5b506102ce60048036038101906102c99190612cf5565b610e5a565b005b3480156102dc57600080fd5b506102f760048036038101906102f29190612edd565b610e7a565b6040516103049190613420565b60405180910390f35b34801561031957600080fd5b50610334600480360381019061032f9190612c90565b610f2c565b60405161034191906137cb565b60405180910390f35b610364600480360381019061035f9190612e89565b610fe4565b60405161037191906137cb565b60405180910390f35b34801561038657600080fd5b5061038f611026565b60405161039c9190613509565b60405180910390f35b3480156103b157600080fd5b506103cc60048036038101906103c79190612dbf565b6110b8565b005b6103e860048036038101906103e39190612edd565b6110ce565b005b3480156103f657600080fd5b50610411600480360381019061040c9190612d44565b611168565b005b61042d60048036038101906104289190612edd565b6111ca565b005b34801561043b57600080fd5b50610444611403565b60405161045191906134cc565b60405180910390f35b34801561046657600080fd5b50610481600480360381019061047c9190612edd565b61173d565b60405161048e9190613509565b60405180910390f35b6104b160048036038101906104ac9190612f06565b61188f565b005b3480156104bf57600080fd5b506104da60048036038101906104d59190612cb9565b611a7a565b6040516104e791906134ee565b60405180910390f35b60007f80ac58cd000000000000000000000000000000000000000000000000000000007bffffffffffffffffffffffffffffffffffffffffffffffffffffffff1916827bffffffffffffffffffffffffffffffffffffffffffffffffffffffff191614806105bb57507f5b5e139f000000000000000000000000000000000000000000000000000000007bffffffffffffffffffffffffffffffffffffffffffffffffffffffff1916827bffffffffffffffffffffffffffffffffffffffffffffffffffffffff1916145b806105cb57506105ca82611b0e565b5b9050919050565b6060600080546105e190613a6c565b80601f016020809104026020016040519081016040528092919081815260200182805461060d90613a6c565b801561065a5780601f1061062f5761010080835404028352916020019161065a565b820191906000526020600020905b81548152906001019060200180831161063d57829003601f168201915b5050505050905090565b600061066f82611b78565b6106ae576040517f08c379a00000000000000000000000000000000000000000000000000000000081526004016106a59061370b565b60405180910390fd5b6004600083815260200190815260200160002060009054906101000a900473ffffffffffffffffffffffffffffffffffffffff169050919050565b60006106f482610e7a565b90508073ffffffffffffffffffffffffffffffffffffffff168373ffffffffffffffffffffffffffffffffffffffff161415610765576040517f08c379a000000000000000000000000000000000000000000000000000000000815260040161075c9061374b565b60405180910390fd5b8073ffffffffffffffffffffffffffffffffffffffff16610784611be4565b73ffffffffffffffffffffffffffffffffffffffff1614806107b357506107b2816107ad611be4565b611a7a565b5b6107f2576040517f08c379a00000000000000000000000000000000000000000000000000000000081526004016107e99061364b565b60405180910390fd5b6107fc8383611bec565b505050565b6060600061080f6007611ca5565b9050600061081d6008611ca5565b6108276007611ca5565b6108319190613970565b90506000808267ffffffffffffffff811115610876577f4e487b7100000000000000000000000000000000000000000000000000000000600052604160045260246000fd5b6040519080825280602002602001820160405280156108af57816020015b61089c612a57565b8152602001906001900390816108945790505b50905060005b84811015610aab573073ffffffffffffffffffffffffffffffffffffffff16600b60006001846108e591906138e9565b815260200190815260200160002060020160009054906101000a900473ffffffffffffffffffffffffffffffffffffffff1673ffffffffffffffffffffffffffffffffffffffff161415610a9857600060018261094291906138e9565b90506000600b60008381526020019081526020016000209050806040518060a0016040529081600082015481526020016001820160009054906101000a900473ffffffffffffffffffffffffffffffffffffffff1673ffffffffffffffffffffffffffffffffffffffff1673ffffffffffffffffffffffffffffffffffffffff1681526020016002820160009054906101000a900473ffffffffffffffffffffffffffffffffffffffff1673ffffffffffffffffffffffffffffffffffffffff1673ffffffffffffffffffffffffffffffffffffffff168152602001600382015481526020016004820160009054906101000a900460ff161515151581525050848681518110610a7b577f4e487b7100000000000000000000000000000000000000000000000000000000600052603260045260246000fd5b6020026020010181905250600185610a9391906138e9565b945050505b8080610aa390613acf565b9150506108b5565b508094505050505090565b6000600954905090565b60606000610ace6007611ca5565b905060008060005b83811015610b77573373ffffffffffffffffffffffffffffffffffffffff16600b6000600184610b0691906138e9565b815260200190815260200160002060020160009054906101000a900473ffffffffffffffffffffffffffffffffffffffff1673ffffffffffffffffffffffffffffffffffffffff161415610b6457600183610b6191906138e9565b92505b8080610b6f90613acf565b915050610ad6565b5060008267ffffffffffffffff811115610bba577f4e487b7100000000000000000000000000000000000000000000000000000000600052604160045260246000fd5b604051908082528060200260200182016040528015610bf357816020015b610be0612a57565b815260200190600190039081610bd85790505b50905060005b84811015610def573373ffffffffffffffffffffffffffffffffffffffff16600b6000600184610c2991906138e9565b815260200190815260200160002060020160009054906101000a900473ffffffffffffffffffffffffffffffffffffffff1673ffffffffffffffffffffffffffffffffffffffff161415610ddc576000600182610c8691906138e9565b90506000600b60008381526020019081526020016000209050806040518060a0016040529081600082015481526020016001820160009054906101000a900473ffffffffffffffffffffffffffffffffffffffff1673ffffffffffffffffffffffffffffffffffffffff1673ffffffffffffffffffffffffffffffffffffffff1681526020016002820160009054906101000a900473ffffffffffffffffffffffffffffffffffffffff1673ffffffffffffffffffffffffffffffffffffffff1673ffffffffffffffffffffffffffffffffffffffff168152602001600382015481526020016004820160009054906101000a900460ff161515151581525050848681518110610dbf577f4e487b7100000000000000000000000000000000000000000000000000000000600052603260045260246000fd5b6020026020010181905250600185610dd791906138e9565b945050505b8080610de790613acf565b915050610bf9565b508094505050505090565b610e0b610e05611be4565b82611cb3565b610e4a576040517f08c379a0000000000000000000000000000000000000000000000000000000008152600401610e419061376b565b60405180910390fd5b610e55838383611d91565b505050565b610e7583838360405180602001604052806000815250611168565b505050565b6000806002600084815260200190815260200160002060009054906101000a900473ffffffffffffffffffffffffffffffffffffffff169050600073ffffffffffffffffffffffffffffffffffffffff168173ffffffffffffffffffffffffffffffffffffffff161415610f23576040517f08c379a0000000000000000000000000000000000000000000000000000000008152600401610f1a9061368b565b60405180910390fd5b80915050919050565b60008073ffffffffffffffffffffffffffffffffffffffff168273ffffffffffffffffffffffffffffffffffffffff161415610f9d576040517f08c379a0000000000000000000000000000000000000000000000000000000008152600401610f949061366b565b60405180910390fd5b600360008373ffffffffffffffffffffffffffffffffffffffff1673ffffffffffffffffffffffffffffffffffffffff168152602001908152602001600020549050919050565b6000610ff06007611ff8565b6000610ffc6007611ca5565b9050611008338261200e565b61101281856121e8565b61101c818461225c565b8091505092915050565b60606001805461103590613a6c565b80601f016020809104026020016040519081016040528092919081815260200182805461106190613a6c565b80156110ae5780601f10611083576101008083540402835291602001916110ae565b820191906000526020600020905b81548152906001019060200180831161109157829003601f168201915b5050505050905090565b6110ca6110c3611be4565b838361245f565b5050565b3373ffffffffffffffffffffffffffffffffffffffff16600a60009054906101000a900473ffffffffffffffffffffffffffffffffffffffff1673ffffffffffffffffffffffffffffffffffffffff161461115e576040517f08c379a00000000000000000000000000000000000000000000000000000000081526004016111559061362b565b60405180910390fd5b8060098190555050565b611179611173611be4565b83611cb3565b6111b8576040517f08c379a00000000000000000000000000000000000000000000000000000000081526004016111af9061376b565b60405180910390fd5b6111c4848484846125cc565b50505050565b6000600b6000838152602001908152602001600020600301549050803414611227576040517f08c379a000000000000000000000000000000000000000000000000000000000815260040161121e9061352b565b60405180910390fd5b6001600b600084815260200190815260200160002060040160006101000a81548160ff0219169083151502179055506000600b600084815260200190815260200160002060010160006101000a81548173ffffffffffffffffffffffffffffffffffffffff021916908373ffffffffffffffffffffffffffffffffffffffff16021790555033600b600084815260200190815260200160002060020160006101000a81548173ffffffffffffffffffffffffffffffffffffffff021916908373ffffffffffffffffffffffffffffffffffffffff16021790555061130b6008611ff8565b61131760003384611d91565b600a60009054906101000a900473ffffffffffffffffffffffffffffffffffffffff1673ffffffffffffffffffffffffffffffffffffffff166108fc6009549081150290604051600060405180830381858888f19350505050158015611381573d6000803e3d6000fd5b50600b600083815260200190815260200160002060010160009054906101000a900473ffffffffffffffffffffffffffffffffffffffff1673ffffffffffffffffffffffffffffffffffffffff166108fc349081150290604051600060405180830381858888f193505050501580156113fe573d6000803e3d6000fd5b505050565b606060006114116007611ca5565b905060008060005b838110156114ba573373ffffffffffffffffffffffffffffffffffffffff16600b600060018461144991906138e9565b815260200190815260200160002060010160009054906101000a900473ffffffffffffffffffffffffffffffffffffffff1673ffffffffffffffffffffffffffffffffffffffff1614156114a7576001836114a491906138e9565b92505b80806114b290613acf565b915050611419565b5060008267ffffffffffffffff8111156114fd577f4e487b7100000000000000000000000000000000000000000000000000000000600052604160045260246000fd5b60405190808252806020026020018201604052801561153657816020015b611523612a57565b81526020019060019003908161151b5790505b50905060005b84811015611732573373ffffffffffffffffffffffffffffffffffffffff16600b600060018461156c91906138e9565b815260200190815260200160002060010160009054906101000a900473ffffffffffffffffffffffffffffffffffffffff1673ffffffffffffffffffffffffffffffffffffffff16141561171f5760006001826115c991906138e9565b90506000600b60008381526020019081526020016000209050806040518060a0016040529081600082015481526020016001820160009054906101000a900473ffffffffffffffffffffffffffffffffffffffff1673ffffffffffffffffffffffffffffffffffffffff1673ffffffffffffffffffffffffffffffffffffffff1681526020016002820160009054906101000a900473ffffffffffffffffffffffffffffffffffffffff1673ffffffffffffffffffffffffffffffffffffffff1673ffffffffffffffffffffffffffffffffffffffff168152602001600382015481526020016004820160009054906101000a900460ff161515151581525050848681518110611702577f4e487b7100000000000000000000000000000000000000000000000000000000600052603260045260246000fd5b602002602001018190525060018561171a91906138e9565b945050505b808061172a90613acf565b91505061153c565b508094505050505090565b606061174882611b78565b611787576040517f08c379a000000000000000000000000000000000000000000000000000000000815260040161177e906136eb565b60405180910390fd5b60006006600084815260200190815260200160002080546117a790613a6c565b80601f01602080910402602001604051908101604052809291908181526020018280546117d390613a6c565b80156118205780601f106117f557610100808354040283529160200191611820565b820191906000526020600020905b81548152906001019060200180831161180357829003601f168201915b505050505090506000611831612628565b905060008151141561184757819250505061188a565b60008251111561187c5780826040516020016118649291906133fc565b6040516020818303038152906040529250505061188a565b6118858461263f565b925050505b919050565b3373ffffffffffffffffffffffffffffffffffffffff16600b600084815260200190815260200160002060020160009054906101000a900473ffffffffffffffffffffffffffffffffffffffff1673ffffffffffffffffffffffffffffffffffffffff1614611933576040517f08c379a000000000000000000000000000000000000000000000000000000000815260040161192a906135eb565b60405180910390fd5b6009543414611977576040517f08c379a000000000000000000000000000000000000000000000000000000000815260040161196e9061378b565b60405180910390fd5b6000600b600084815260200190815260200160002060040160006101000a81548160ff02191690831515021790555080600b60008481526020019081526020016000206003018190555033600b600084815260200190815260200160002060010160006101000a81548173ffffffffffffffffffffffffffffffffffffffff021916908373ffffffffffffffffffffffffffffffffffffffff16021790555030600b600084815260200190815260200160002060020160006101000a81548173ffffffffffffffffffffffffffffffffffffffff021916908373ffffffffffffffffffffffffffffffffffffffff160217905550611a76333084611d91565b5050565b6000600560008473ffffffffffffffffffffffffffffffffffffffff1673ffffffffffffffffffffffffffffffffffffffff16815260200190815260200160002060008373ffffffffffffffffffffffffffffffffffffffff1673ffffffffffffffffffffffffffffffffffffffff16815260200190815260200160002060009054906101000a900460ff16905092915050565b60007f01ffc9a7000000000000000000000000000000000000000000000000000000007bffffffffffffffffffffffffffffffffffffffffffffffffffffffff1916827bffffffffffffffffffffffffffffffffffffffffffffffffffffffff1916149050919050565b60008073ffffffffffffffffffffffffffffffffffffffff166002600084815260200190815260200160002060009054906101000a900473ffffffffffffffffffffffffffffffffffffffff1673ffffffffffffffffffffffffffffffffffffffff1614159050919050565b600033905090565b816004600083815260200190815260200160002060006101000a81548173ffffffffffffffffffffffffffffffffffffffff021916908373ffffffffffffffffffffffffffffffffffffffff160217905550808273ffffffffffffffffffffffffffffffffffffffff16611c5f83610e7a565b73ffffffffffffffffffffffffffffffffffffffff167f8c5be1e5ebec7d5bd14f71427d1e84f3dd0314c0f7b2291e5b200ac8c7c3b92560405160405180910390a45050565b600081600001549050919050565b6000611cbe82611b78565b611cfd576040517f08c379a0000000000000000000000000000000000000000000000000000000008152600401611cf49061360b565b60405180910390fd5b6000611d0883610e7a565b90508073ffffffffffffffffffffffffffffffffffffffff168473ffffffffffffffffffffffffffffffffffffffff161480611d7757508373ffffffffffffffffffffffffffffffffffffffff16611d5f84610664565b73ffffffffffffffffffffffffffffffffffffffff16145b80611d885750611d878185611a7a565b5b91505092915050565b8273ffffffffffffffffffffffffffffffffffffffff16611db182610e7a565b73ffffffffffffffffffffffffffffffffffffffff1614611e07576040517f08c379a0000000000000000000000000000000000000000000000000000000008152600401611dfe9061356b565b60405180910390fd5b600073ffffffffffffffffffffffffffffffffffffffff168273ffffffffffffffffffffffffffffffffffffffff161415611e77576040517f08c379a0000000000000000000000000000000000000000000000000000000008152600401611e6e906135ab565b60405180910390fd5b611e828383836126e6565b611e8d600082611bec565b6001600360008573ffffffffffffffffffffffffffffffffffffffff1673ffffffffffffffffffffffffffffffffffffffff1681526020019081526020016000206000828254611edd9190613970565b925050819055506001600360008473ffffffffffffffffffffffffffffffffffffffff1673ffffffffffffffffffffffffffffffffffffffff1681526020019081526020016000206000828254611f3491906138e9565b92505081905550816002600083815260200190815260200160002060006101000a81548173ffffffffffffffffffffffffffffffffffffffff021916908373ffffffffffffffffffffffffffffffffffffffff160217905550808273ffffffffffffffffffffffffffffffffffffffff168473ffffffffffffffffffffffffffffffffffffffff167fddf252ad1be2c89b69c2b068fc378daa952ba7f163c4a11628f55a4df523b3ef60405160405180910390a4611ff38383836126eb565b505050565b6001816000016000828254019250508190555050565b600073ffffffffffffffffffffffffffffffffffffffff168273ffffffffffffffffffffffffffffffffffffffff16141561207e576040517f08c379a0000000000000000000000000000000000000000000000000000000008152600401612075906136cb565b60405180910390fd5b61208781611b78565b156120c7576040517f08c379a00000000000000000000000000000000000000000000000000000000081526004016120be9061358b565b60405180910390fd5b6120d3600083836126e6565b6001600360008473ffffffffffffffffffffffffffffffffffffffff1673ffffffffffffffffffffffffffffffffffffffff168152602001908152602001600020600082825461212391906138e9565b92505081905550816002600083815260200190815260200160002060006101000a81548173ffffffffffffffffffffffffffffffffffffffff021916908373ffffffffffffffffffffffffffffffffffffffff160217905550808273ffffffffffffffffffffffffffffffffffffffff16600073ffffffffffffffffffffffffffffffffffffffff167fddf252ad1be2c89b69c2b068fc378daa952ba7f163c4a11628f55a4df523b3ef60405160405180910390a46121e4600083836126eb565b5050565b6121f182611b78565b612230576040517f08c379a0000000000000000000000000000000000000000000000000000000008152600401612227906136ab565b60405180910390fd5b80600660008481526020019081526020016000209080519060200190612257929190612ab4565b505050565b6000811161229f576040517f08c379a0000000000000000000000000000000000000000000000000000000008152600401612296906137ab565b60405180910390fd5b60095434146122e3576040517f08c379a00000000000000000000000000000000000000000000000000000000081526004016122da9061378b565b60405180910390fd5b6040518060a001604052808381526020013373ffffffffffffffffffffffffffffffffffffffff1681526020013073ffffffffffffffffffffffffffffffffffffffff16815260200182815260200160001515815250600b60008481526020019081526020016000206000820151816000015560208201518160010160006101000a81548173ffffffffffffffffffffffffffffffffffffffff021916908373ffffffffffffffffffffffffffffffffffffffff16021790555060408201518160020160006101000a81548173ffffffffffffffffffffffffffffffffffffffff021916908373ffffffffffffffffffffffffffffffffffffffff1602179055506060820151816003015560808201518160040160006101000a81548160ff02191690831515021790555090505061241c333084611d91565b817fb640004f1d14576d0c209e240cad0410e0d8c0c33a09375861fbadae2588a98d3330846000604051612453949392919061343b565b60405180910390a25050565b8173ffffffffffffffffffffffffffffffffffffffff168373ffffffffffffffffffffffffffffffffffffffff1614156124ce576040517f08c379a00000000000000000000000000000000000000000000000000000000081526004016124c5906135cb565b60405180910390fd5b80600560008573ffffffffffffffffffffffffffffffffffffffff1673ffffffffffffffffffffffffffffffffffffffff16815260200190815260200160002060008473ffffffffffffffffffffffffffffffffffffffff1673ffffffffffffffffffffffffffffffffffffffff16815260200190815260200160002060006101000a81548160ff0219169083151502179055508173ffffffffffffffffffffffffffffffffffffffff168373ffffffffffffffffffffffffffffffffffffffff167f17307eab39ab6107e8899845ad3d59bd9653f200f220920489ca2b5937696c31836040516125bf91906134ee565b60405180910390a3505050565b6125d7848484611d91565b6125e3848484846126f0565b612622576040517f08c379a00000000000000000000000000000000000000000000000000000000081526004016126199061354b565b60405180910390fd5b50505050565b606060405180602001604052806000815250905090565b606061264a82611b78565b612689576040517f08c379a00000000000000000000000000000000000000000000000000000000081526004016126809061372b565b60405180910390fd5b6000612693612628565b905060008151116126b357604051806020016040528060008152506126de565b806126bd84612887565b6040516020016126ce9291906133fc565b6040516020818303038152906040525b915050919050565b505050565b505050565b60006127118473ffffffffffffffffffffffffffffffffffffffff16612a34565b1561287a578373ffffffffffffffffffffffffffffffffffffffff1663150b7a0261273a611be4565b8786866040518563ffffffff1660e01b815260040161275c9493929190613480565b602060405180830381600087803b15801561277657600080fd5b505af19250505080156127a757506040513d601f19601f820116820180604052508101906127a49190612e60565b60015b61282a573d80600081146127d7576040519150601f19603f3d011682016040523d82523d6000602084013e6127dc565b606091505b50600081511415612822576040517f08c379a00000000000000000000000000000000000000000000000000000000081526004016128199061354b565b60405180910390fd5b805181602001fd5b63150b7a0260e01b7bffffffffffffffffffffffffffffffffffffffffffffffffffffffff1916817bffffffffffffffffffffffffffffffffffffffffffffffffffffffff19161491505061287f565b600190505b949350505050565b606060008214156128cf576040518060400160405280600181526020017f30000000000000000000000000000000000000000000000000000000000000008152509050612a2f565b600082905060005b600082146129015780806128ea90613acf565b915050600a826128fa919061393f565b91506128d7565b60008167ffffffffffffffff811115612943577f4e487b7100000000000000000000000000000000000000000000000000000000600052604160045260246000fd5b6040519080825280601f01601f1916602001820160405280156129755781602001600182028036833780820191505090505b5090505b60008514612a285760018261298e9190613970565b9150600a8561299d9190613b18565b60306129a991906138e9565b60f81b8183815181106129e5577f4e487b7100000000000000000000000000000000000000000000000000000000600052603260045260246000fd5b60200101907effffffffffffffffffffffffffffffffffffffffffffffffffffffffffffff1916908160001a905350600a85612a21919061393f565b9450612979565b8093505050505b919050565b6000808273ffffffffffffffffffffffffffffffffffffffff163b119050919050565b6040518060a0016040528060008152602001600073ffffffffffffffffffffffffffffffffffffffff168152602001600073ffffffffffffffffffffffffffffffffffffffff168152602001600081526020016000151581525090565b828054612ac090613a6c565b90600052602060002090601f016020900481019282612ae25760008555612b29565b82601f10612afb57805160ff1916838001178555612b29565b82800160010185558215612b29579182015b82811115612b28578251825591602001919060010190612b0d565b5b509050612b369190612b3a565b5090565b5b80821115612b53576000816000905550600101612b3b565b5090565b6000612b6a612b658461380b565b6137e6565b905082815260208101848484011115612b8257600080fd5b612b8d848285613a2a565b509392505050565b6000612ba8612ba38461383c565b6137e6565b905082815260208101848484011115612bc057600080fd5b612bcb848285613a2a565b509392505050565b600081359050612be28161421f565b92915050565b600081359050612bf781614236565b92915050565b600081359050612c0c8161424d565b92915050565b600081519050612c218161424d565b92915050565b600082601f830112612c3857600080fd5b8135612c48848260208601612b57565b91505092915050565b600082601f830112612c6257600080fd5b8135612c72848260208601612b95565b91505092915050565b600081359050612c8a81614264565b92915050565b600060208284031215612ca257600080fd5b6000612cb084828501612bd3565b91505092915050565b60008060408385031215612ccc57600080fd5b6000612cda85828601612bd3565b9250506020612ceb85828601612bd3565b9150509250929050565b600080600060608486031215612d0a57600080fd5b6000612d1886828701612bd3565b9350506020612d2986828701612bd3565b9250506040612d3a86828701612c7b565b9150509250925092565b60008060008060808587031215612d5a57600080fd5b6000612d6887828801612bd3565b9450506020612d7987828801612bd3565b9350506040612d8a87828801612c7b565b925050606085013567ffffffffffffffff811115612da757600080fd5b612db387828801612c27565b91505092959194509250565b60008060408385031215612dd257600080fd5b6000612de085828601612bd3565b9250506020612df185828601612be8565b9150509250929050565b60008060408385031215612e0e57600080fd5b6000612e1c85828601612bd3565b9250506020612e2d85828601612c7b565b9150509250929050565b600060208284031215612e4957600080fd5b6000612e5784828501612bfd565b91505092915050565b600060208284031215612e7257600080fd5b6000612e8084828501612c12565b91505092915050565b60008060408385031215612e9c57600080fd5b600083013567ffffffffffffffff811115612eb657600080fd5b612ec285828601612c51565b9250506020612ed385828601612c7b565b9150509250929050565b600060208284031215612eef57600080fd5b6000612efd84828501612c7b565b91505092915050565b60008060408385031215612f1957600080fd5b6000612f2785828601612c7b565b9250506020612f3885828601612c7b565b9150509250929050565b6000612f4e8383613376565b60a08301905092915050565b612f63816139b6565b82525050565b612f72816139a4565b82525050565b6000612f838261387d565b612f8d81856138ab565b9350612f988361386d565b8060005b83811015612fc9578151612fb08882612f42565b9750612fbb8361389e565b925050600181019050612f9c565b5085935050505092915050565b612fdf816139c8565b82525050565b612fee816139c8565b82525050565b6000612fff82613888565b61300981856138bc565b9350613019818560208601613a39565b61302281613c05565b840191505092915050565b600061303882613893565b61304281856138cd565b9350613052818560208601613a39565b61305b81613c05565b840191505092915050565b600061307182613893565b61307b81856138de565b935061308b818560208601613a39565b80840191505092915050565b60006130a46041836138cd565b91506130af82613c16565b606082019050919050565b60006130c76032836138cd565b91506130d282613c8b565b604082019050919050565b60006130ea6025836138cd565b91506130f582613cda565b604082019050919050565b600061310d601c836138cd565b915061311882613d29565b602082019050919050565b60006131306024836138cd565b915061313b82613d52565b604082019050919050565b60006131536019836138cd565b915061315e82613da1565b602082019050919050565b6000613176602b836138cd565b915061318182613dca565b604082019050919050565b6000613199602c836138cd565b91506131a482613e19565b604082019050919050565b60006131bc6034836138cd565b91506131c782613e68565b604082019050919050565b60006131df6038836138cd565b91506131ea82613eb7565b604082019050919050565b6000613202602a836138cd565b915061320d82613f06565b604082019050919050565b60006132256029836138cd565b915061323082613f55565b604082019050919050565b6000613248602e836138cd565b915061325382613fa4565b604082019050919050565b600061326b6020836138cd565b915061327682613ff3565b602082019050919050565b600061328e6031836138cd565b91506132998261401c565b604082019050919050565b60006132b1602c836138cd565b91506132bc8261406b565b604082019050919050565b60006132d4602f836138cd565b91506132df826140ba565b604082019050919050565b60006132f76021836138cd565b915061330282614109565b604082019050919050565b600061331a6031836138cd565b915061332582614158565b604082019050919050565b600061333d6025836138cd565b9150613348826141a7565b604082019050919050565b60006133606019836138cd565b915061336b826141f6565b602082019050919050565b60a08201600082015161338c60008501826133de565b50602082015161339f6020850182612f5a565b5060408201516133b26040850182612f5a565b5060608201516133c560608501826133de565b5060808201516133d86080850182612fd6565b50505050565b6133e781613a20565b82525050565b6133f681613a20565b82525050565b60006134088285613066565b91506134148284613066565b91508190509392505050565b60006020820190506134356000830184612f69565b92915050565b60006080820190506134506000830187612f69565b61345d6020830186612f69565b61346a60408301856133ed565b6134776060830184612fe5565b95945050505050565b60006080820190506134956000830187612f69565b6134a26020830186612f69565b6134af60408301856133ed565b81810360608301526134c18184612ff4565b905095945050505050565b600060208201905081810360008301526134e68184612f78565b905092915050565b60006020820190506135036000830184612fe5565b92915050565b60006020820190508181036000830152613523818461302d565b905092915050565b6000602082019050818103600083015261354481613097565b9050919050565b60006020820190508181036000830152613564816130ba565b9050919050565b60006020820190508181036000830152613584816130dd565b9050919050565b600060208201905081810360008301526135a481613100565b9050919050565b600060208201905081810360008301526135c481613123565b9050919050565b600060208201905081810360008301526135e481613146565b9050919050565b6000602082019050818103600083015261360481613169565b9050919050565b600060208201905081810360008301526136248161318c565b9050919050565b60006020820190508181036000830152613644816131af565b9050919050565b60006020820190508181036000830152613664816131d2565b9050919050565b60006020820190508181036000830152613684816131f5565b9050919050565b600060208201905081810360008301526136a481613218565b9050919050565b600060208201905081810360008301526136c48161323b565b9050919050565b600060208201905081810360008301526136e48161325e565b9050919050565b6000602082019050818103600083015261370481613281565b9050919050565b60006020820190508181036000830152613724816132a4565b9050919050565b60006020820190508181036000830152613744816132c7565b9050919050565b60006020820190508181036000830152613764816132ea565b9050919050565b600060208201905081810360008301526137848161330d565b9050919050565b600060208201905081810360008301526137a481613330565b9050919050565b600060208201905081810360008301526137c481613353565b9050919050565b60006020820190506137e060008301846133ed565b92915050565b60006137f0613801565b90506137fc8282613a9e565b919050565b6000604051905090565b600067ffffffffffffffff82111561382657613825613bd6565b5b61382f82613c05565b9050602081019050919050565b600067ffffffffffffffff82111561385757613856613bd6565b5b61386082613c05565b9050602081019050919050565b6000819050602082019050919050565b600081519050919050565b600081519050919050565b600081519050919050565b6000602082019050919050565b600082825260208201905092915050565b600082825260208201905092915050565b600082825260208201905092915050565b600081905092915050565b60006138f482613a20565b91506138ff83613a20565b9250827fffffffffffffffffffffffffffffffffffffffffffffffffffffffffffffffff0382111561393457613933613b49565b5b828201905092915050565b600061394a82613a20565b915061395583613a20565b92508261396557613964613b78565b5b828204905092915050565b600061397b82613a20565b915061398683613a20565b92508282101561399957613998613b49565b5b828203905092915050565b60006139af82613a00565b9050919050565b60006139c182613a00565b9050919050565b60008115159050919050565b60007fffffffff0000000000000000000000000000000000000000000000000000000082169050919050565b600073ffffffffffffffffffffffffffffffffffffffff82169050919050565b6000819050919050565b82818337600083830152505050565b60005b83811015613a57578082015181840152602081019050613a3c565b83811115613a66576000848401525b50505050565b60006002820490506001821680613a8457607f821691505b60208210811415613a9857613a97613ba7565b5b50919050565b613aa782613c05565b810181811067ffffffffffffffff82111715613ac657613ac5613bd6565b5b80604052505050565b6000613ada82613a20565b91507fffffffffffffffffffffffffffffffffffffffffffffffffffffffffffffffff821415613b0d57613b0c613b49565b5b600182019050919050565b6000613b2382613a20565b9150613b2e83613a20565b925082613b3e57613b3d613b78565b5b828206905092915050565b7f4e487b7100000000000000000000000000000000000000000000000000000000600052601160045260246000fd5b7f4e487b7100000000000000000000000000000000000000000000000000000000600052601260045260246000fd5b7f4e487b7100000000000000000000000000000000000000000000000000000000600052602260045260246000fd5b7f4e487b7100000000000000000000000000000000000000000000000000000000600052604160045260246000fd5b6000601f19601f8301169050919050565b7f506c65617365207375626d6974207468652061736b696e67207072696365206960008201527f6e206f7264657220746f20636f6d706c6574652074686520707572636861736560208201527f2e00000000000000000000000000000000000000000000000000000000000000604082015250565b7f4552433732313a207472616e7366657220746f206e6f6e20455243373231526560008201527f63656976657220696d706c656d656e7465720000000000000000000000000000602082015250565b7f4552433732313a207472616e736665722066726f6d20696e636f72726563742060008201527f6f776e6572000000000000000000000000000000000000000000000000000000602082015250565b7f4552433732313a20746f6b656e20616c7265616479206d696e74656400000000600082015250565b7f4552433732313a207472616e7366657220746f20746865207a65726f2061646460008201527f7265737300000000000000000000000000000000000000000000000000000000602082015250565b7f4552433732313a20617070726f766520746f2063616c6c657200000000000000600082015250565b7f4f6e6c79206974656d206f776e65722063616e20706572666f726d207468697360008201527f206f7065726174696f6e2e000000000000000000000000000000000000000000602082015250565b7f4552433732313a206f70657261746f7220717565727920666f72206e6f6e657860008201527f697374656e7420746f6b656e0000000000000000000000000000000000000000602082015250565b7f4f6e6c79206d61726b6574706c616365206f776e65722063616e206368616e6760008201527f6520746865206c697374696e6720707269636521000000000000000000000000602082015250565b7f4552433732313a20617070726f76652063616c6c6572206973206e6f74206f7760008201527f6e6572206e6f7220617070726f76656420666f7220616c6c0000000000000000602082015250565b7f4552433732313a2062616c616e636520717565727920666f7220746865207a6560008201527f726f206164647265737300000000000000000000000000000000000000000000602082015250565b7f4552433732313a206f776e657220717565727920666f72206e6f6e657869737460008201527f656e7420746f6b656e0000000000000000000000000000000000000000000000602082015250565b7f45524337323155524953746f726167653a2055524920736574206f66206e6f6e60008201527f6578697374656e7420746f6b656e000000000000000000000000000000000000602082015250565b7f4552433732313a206d696e7420746f20746865207a65726f2061646472657373600082015250565b7f45524337323155524953746f726167653a2055524920717565727920666f722060008201527f6e6f6e6578697374656e7420746f6b656e000000000000000000000000000000602082015250565b7f4552433732313a20617070726f76656420717565727920666f72206e6f6e657860008201527f697374656e7420746f6b656e0000000000000000000000000000000000000000602082015250565b7f4552433732314d657461646174613a2055524920717565727920666f72206e6f60008201527f6e6578697374656e7420746f6b656e0000000000000000000000000000000000602082015250565b7f4552433732313a20617070726f76616c20746f2063757272656e74206f776e6560008201527f7200000000000000000000000000000000000000000000000000000000000000602082015250565b7f4552433732313a207472616e736665722063616c6c6572206973206e6f74206f60008201527f776e6572206e6f7220617070726f766564000000000000000000000000000000602082015250565b7f5072696365206d75737420626520657175616c20746f206c697374696e67207060008201527f726963652e000000000000000000000000000000000000000000000000000000602082015250565b7f5072696365206d757374206265206174206c6561737420312e00000000000000600082015250565b614228816139a4565b811461423357600080fd5b50565b61423f816139c8565b811461424a57600080fd5b50565b614256816139d4565b811461426157600080fd5b50565b61426d81613a20565b811461427857600080fd5b5056fea2646970667358221220052963ad856702c0bedbf9000f465057fccfda47f580313afd2d634521cc39f964736f6c63430008040033",
  "linkReferences": {},
  "deployedLinkReferences": {}
}